{"contracts/cygnus-oracle/libraries/UQ112x112.sol":{"UQ112x112":{"abi":[{"inputs":[],"name":"Q112","outputs":[{"internalType":"uint224","name":"","type":"uint224"}],"stateMutability":"view","type":"function"}],"evm":{"bytecode":{"linkReferences":{},"object":"60b4610038600b82828239805160001a607314602b57634e487b7160e01b600052600060045260246000fd5b30600052607381538281f3fe730000000000000000000000000000000000000000301460806040526004361060335760003560e01c80633bf7a83e146038575b600080fd5b604d6e01000000000000000000000000000081565b6040517bffffffffffffffffffffffffffffffffffffffffffffffffffffffff909116815260200160405180910390f3fea264697066735822122006d050f06057798a6d9f20fc0e9f515784bcd345f63a390886ec782965aecb1e64736f6c63430008040033","opcodes":"PUSH1 0xB4 PUSH2 0x38 PUSH1 0xB DUP3 DUP3 DUP3 CODECOPY DUP1 MLOAD PUSH1 0x0 BYTE PUSH1 0x73 EQ PUSH1 0x2B JUMPI PUSH4 0x4E487B71 PUSH1 0xE0 SHL PUSH1 0x0 MSTORE PUSH1 0x0 PUSH1 0x4 MSTORE PUSH1 0x24 PUSH1 0x0 REVERT JUMPDEST ADDRESS PUSH1 0x0 MSTORE PUSH1 0x73 DUP2 MSTORE8 DUP3 DUP2 RETURN INVALID PUSH20 0x0 ADDRESS EQ PUSH1 0x80 PUSH1 0x40 MSTORE PUSH1 0x4 CALLDATASIZE LT PUSH1 0x33 JUMPI PUSH1 0x0 CALLDATALOAD PUSH1 0xE0 SHR DUP1 PUSH4 0x3BF7A83E EQ PUSH1 0x38 JUMPI JUMPDEST PUSH1 0x0 DUP1 REVERT JUMPDEST PUSH1 0x4D PUSH15 0x10000000000000000000000000000 DUP2 JUMP JUMPDEST PUSH1 0x40 MLOAD PUSH28 0xFFFFFFFFFFFFFFFFFFFFFFFFFFFFFFFFFFFFFFFFFFFFFFFFFFFFFFFF SWAP1 SWAP2 AND DUP2 MSTORE PUSH1 0x20 ADD PUSH1 0x40 MLOAD DUP1 SWAP2 SUB SWAP1 RETURN INVALID LOG2 PUSH5 0x6970667358 0x22 SLT KECCAK256 MOD 0xD0 POP CREATE PUSH1 0x57 PUSH26 0x8A6D9F20FC0E9F515784BCD345F63A390886EC782965AECB1E64 PUSH20 0x6F6C634300080400330000000000000000000000 "},"methodIdentifiers":{"Q112()":"3bf7a83e"}}}}}