{
  "_format": "hh-sol-artifact-1",
  "contractName": "CygnusNebulaOracle",
  "sourceName": "contracts/cygnus-oracle/CygnusNebulaOracle.sol",
  "abi": [
    {
      "inputs": [
        {
          "internalType": "contract IERC20",
          "name": "denomination",
          "type": "address"
        },
        {
          "internalType": "contract AggregatorV3Interface",
          "name": "denominationPrice",
          "type": "address"
        }
      ],
      "stateMutability": "nonpayable",
      "type": "constructor"
    },
    {
      "inputs": [
        {
          "internalType": "address",
          "name": "pendingAdmin",
          "type": "address"
        }
      ],
      "name": "CygnusNebulaOracle__AdminCantBeZero",
      "type": "error"
    },
    {
      "inputs": [
        {
          "internalType": "address",
          "name": "msgSender",
          "type": "address"
        }
      ],
      "name": "CygnusNebulaOracle__MsgSenderNotAdmin",
      "type": "error"
    },
    {
      "inputs": [
        {
          "internalType": "address",
          "name": "lpTokenPair",
          "type": "address"
        }
      ],
      "name": "CygnusNebulaOracle__NebulaRecordAlreadyInitialized",
      "type": "error"
    },
    {
      "inputs": [
        {
          "internalType": "address",
          "name": "lpTokenPair",
          "type": "address"
        }
      ],
      "name": "CygnusNebulaOracle__NebulaRecordNotInitialized",
      "type": "error"
    },
    {
      "inputs": [
        {
          "internalType": "address",
          "name": "lpTokenPair",
          "type": "address"
        }
      ],
      "name": "CygnusNebulaOracle__PairAlreadyInitialized",
      "type": "error"
    },
    {
      "inputs": [
        {
          "internalType": "address",
          "name": "lpTokenPair",
          "type": "address"
        }
      ],
      "name": "CygnusNebulaOracle__PairNotInitialized",
      "type": "error"
    },
    {
      "inputs": [
        {
          "internalType": "address",
          "name": "pendingAdmin",
          "type": "address"
        }
      ],
      "name": "CygnusNebulaOracle__PendingAdminAlreadySet",
      "type": "error"
    },
    {
      "inputs": [
        {
          "internalType": "contract IERC20",
          "name": "token",
          "type": "address"
        },
        {
          "internalType": "uint256",
          "name": "decimals",
          "type": "uint256"
        }
      ],
      "name": "IERC20Normalizer__TokenDecimalsGreaterThan18",
      "type": "error"
    },
    {
      "inputs": [
        {
          "internalType": "contract IERC20",
          "name": "token",
          "type": "address"
        }
      ],
      "name": "IERC20Normalizer__TokenDecimalsZero",
      "type": "error"
    },
    {
      "inputs": [
        {
          "internalType": "uint256",
          "name": "x",
          "type": "uint256"
        }
      ],
      "name": "PRBMathUD60x18__Exp2InputTooBig",
      "type": "error"
    },
    {
      "inputs": [
        {
          "internalType": "uint256",
          "name": "x",
          "type": "uint256"
        }
      ],
      "name": "PRBMathUD60x18__ExpInputTooBig",
      "type": "error"
    },
    {
      "inputs": [
        {
          "internalType": "uint256",
          "name": "x",
          "type": "uint256"
        }
      ],
      "name": "PRBMathUD60x18__LogInputTooSmall",
      "type": "error"
    },
    {
      "inputs": [
        {
          "internalType": "uint256",
          "name": "prod1",
          "type": "uint256"
        }
      ],
      "name": "PRBMath__MulDivFixedPointOverflow",
      "type": "error"
    },
    {
      "inputs": [
        {
          "internalType": "uint256",
          "name": "prod1",
          "type": "uint256"
        },
        {
          "internalType": "uint256",
          "name": "denominator",
          "type": "uint256"
        }
      ],
      "name": "PRBMath__MulDivOverflow",
      "type": "error"
    },
    {
      "inputs": [],
      "name": "ReentrantCall",
      "type": "error"
    },
    {
      "anonymous": false,
      "inputs": [
        {
          "indexed": false,
          "internalType": "bool",
          "name": "initialized",
          "type": "bool"
        },
        {
          "indexed": false,
          "internalType": "uint88",
          "name": "oracleId",
          "type": "uint88"
        },
        {
          "indexed": false,
          "internalType": "address",
          "name": "lpTokenPair",
          "type": "address"
        },
        {
          "indexed": false,
          "internalType": "contract IERC20[]",
          "name": "poolTokens",
          "type": "address[]"
        },
        {
          "indexed": false,
          "internalType": "uint256[]",
          "name": "tokenDecimals",
          "type": "uint256[]"
        },
        {
          "indexed": false,
          "internalType": "contract AggregatorV3Interface[]",
          "name": "priceFeeds",
          "type": "address[]"
        }
      ],
      "name": "InitializeCygnusNebula",
      "type": "event"
    },
    {
      "anonymous": false,
      "inputs": [
        {
          "indexed": false,
          "internalType": "address",
          "name": "oracleOldAdmin",
          "type": "address"
        },
        {
          "indexed": false,
          "internalType": "address",
          "name": "oracleNewAdmin",
          "type": "address"
        }
      ],
      "name": "NewOracleAdmin",
      "type": "event"
    },
    {
      "anonymous": false,
      "inputs": [
        {
          "indexed": false,
          "internalType": "address",
          "name": "oracleCurrentAdmin",
          "type": "address"
        },
        {
          "indexed": false,
          "internalType": "address",
          "name": "oraclePendingAdmin",
          "type": "address"
        }
      ],
      "name": "NewOraclePendingAdmin",
      "type": "event"
    },
    {
      "inputs": [],
      "name": "SECONDS_PER_YEAR",
      "outputs": [
        {
          "internalType": "uint256",
          "name": "",
          "type": "uint256"
        }
      ],
      "stateMutability": "view",
      "type": "function"
    },
    {
      "inputs": [],
      "name": "VAULT",
      "outputs": [
        {
          "internalType": "contract IVault",
          "name": "",
          "type": "address"
        }
      ],
      "stateMutability": "view",
      "type": "function"
    },
    {
      "inputs": [],
      "name": "admin",
      "outputs": [
        {
          "internalType": "address",
          "name": "",
          "type": "address"
        }
      ],
      "stateMutability": "view",
      "type": "function"
    },
    {
      "inputs": [
        {
          "internalType": "uint256",
          "name": "",
          "type": "uint256"
        }
      ],
      "name": "allNebulas",
      "outputs": [
        {
          "internalType": "address",
          "name": "",
          "type": "address"
        }
      ],
      "stateMutability": "view",
      "type": "function"
    },
    {
      "inputs": [
        {
          "internalType": "address",
          "name": "lpTokenPair",
          "type": "address"
        }
      ],
      "name": "assetPricesUsd",
      "outputs": [
        {
          "internalType": "uint256[]",
          "name": "",
          "type": "uint256[]"
        }
      ],
      "stateMutability": "view",
      "type": "function"
    },
    {
      "inputs": [],
      "name": "decimals",
      "outputs": [
        {
          "internalType": "uint8",
          "name": "",
          "type": "uint8"
        }
      ],
      "stateMutability": "view",
      "type": "function"
    },
    {
      "inputs": [],
      "name": "denominationAggregator",
      "outputs": [
        {
          "internalType": "contract AggregatorV3Interface",
          "name": "",
          "type": "address"
        }
      ],
      "stateMutability": "view",
      "type": "function"
    },
    {
      "inputs": [],
      "name": "denominationToken",
      "outputs": [
        {
          "internalType": "contract IERC20",
          "name": "",
          "type": "address"
        }
      ],
      "stateMutability": "view",
      "type": "function"
    },
    {
      "inputs": [],
      "name": "denominationTokenPrice",
      "outputs": [
        {
          "internalType": "uint256",
          "name": "",
          "type": "uint256"
        }
      ],
      "stateMutability": "view",
      "type": "function"
    },
    {
      "inputs": [
        {
          "internalType": "uint256",
          "name": "exchangeRateLast",
          "type": "uint256"
        },
        {
          "internalType": "uint256",
          "name": "exchangeRateCurrent",
          "type": "uint256"
        },
        {
          "internalType": "uint256",
          "name": "timeElapsed",
          "type": "uint256"
        }
      ],
      "name": "getAnnualizedBaseRate",
      "outputs": [
        {
          "internalType": "uint256",
          "name": "",
          "type": "uint256"
        }
      ],
      "stateMutability": "pure",
      "type": "function"
    },
    {
      "inputs": [
        {
          "internalType": "address",
          "name": "lpTokenPair",
          "type": "address"
        }
      ],
      "name": "getNebula",
      "outputs": [
        {
          "components": [
            {
              "internalType": "bool",
              "name": "initialized",
              "type": "bool"
            },
            {
              "internalType": "uint88",
              "name": "oracleId",
              "type": "uint88"
            },
            {
              "internalType": "string",
              "name": "name",
              "type": "string"
            },
            {
              "internalType": "address",
              "name": "underlying",
              "type": "address"
            },
            {
              "internalType": "contract IERC20[]",
              "name": "poolTokens",
              "type": "address[]"
            },
            {
              "internalType": "uint256[]",
              "name": "tokenDecimals",
              "type": "uint256[]"
            },
            {
              "internalType": "contract AggregatorV3Interface[]",
              "name": "priceFeeds",
              "type": "address[]"
            }
          ],
          "internalType": "struct ICygnusNebulaOracle.CygnusNebula",
          "name": "",
          "type": "tuple"
        }
      ],
      "stateMutability": "view",
      "type": "function"
    },
    {
      "inputs": [
        {
          "internalType": "address",
          "name": "lpTokenPair",
          "type": "address"
        },
        {
          "internalType": "contract AggregatorV3Interface[]",
          "name": "priceFeeds",
          "type": "address[]"
        }
      ],
      "name": "initializeNebula",
      "outputs": [],
      "stateMutability": "nonpayable",
      "type": "function"
    },
    {
      "inputs": [
        {
          "internalType": "address",
          "name": "lpTokenPair",
          "type": "address"
        }
      ],
      "name": "lpTokenPriceUsd",
      "outputs": [
        {
          "internalType": "uint256",
          "name": "lpTokenPrice",
          "type": "uint256"
        }
      ],
      "stateMutability": "view",
      "type": "function"
    },
    {
      "inputs": [],
      "name": "name",
      "outputs": [
        {
          "internalType": "string",
          "name": "",
          "type": "string"
        }
      ],
      "stateMutability": "view",
      "type": "function"
    },
    {
      "inputs": [],
      "name": "nebulaSize",
      "outputs": [
        {
          "internalType": "uint24",
          "name": "",
          "type": "uint24"
        }
      ],
      "stateMutability": "view",
      "type": "function"
    },
    {
      "inputs": [],
      "name": "pendingAdmin",
      "outputs": [
        {
          "internalType": "address",
          "name": "",
          "type": "address"
        }
      ],
      "stateMutability": "view",
      "type": "function"
    },
    {
      "inputs": [],
      "name": "setOracleAdmin",
      "outputs": [],
      "stateMutability": "nonpayable",
      "type": "function"
    },
    {
      "inputs": [
        {
          "internalType": "address",
          "name": "newPendingAdmin",
          "type": "address"
        }
      ],
      "name": "setOraclePendingAdmin",
      "outputs": [],
      "stateMutability": "nonpayable",
      "type": "function"
    },
    {
      "inputs": [],
      "name": "symbol",
      "outputs": [
        {
          "internalType": "string",
          "name": "",
          "type": "string"
        }
      ],
      "stateMutability": "view",
      "type": "function"
    },
    {
      "inputs": [],
      "name": "version",
      "outputs": [
        {
          "internalType": "string",
          "name": "",
          "type": "string"
        }
      ],
      "stateMutability": "view",
      "type": "function"
    }
  ],
  "bytecode": "0x60e06040523480156200001157600080fd5b506040516200412338038062004123833981016040819052620000349162000244565b6000805460ff19166001179055620000493390565b600480546001600160a01b0319166001600160a01b03928316178155606084901b6001600160601b0319166080526040805163313ce56760e01b815290519285169263313ce56792828101926020929190829003018186803b158015620000af57600080fd5b505afa158015620000c4573d6000803e3d6000fd5b505050506040513d601f19601f82011682018060405250810190620000ea919062000282565b60f81b7fff000000000000000000000000000000000000000000000000000000000000001660a052606081901b6001600160601b03191660c0526200012f8162000138565b505050620002c5565b600080826001600160a01b031663313ce5676040518163ffffffff1660e01b815260040160206040518083038186803b1580156200017557600080fd5b505afa1580156200018a573d6000803e3d6000fd5b505050506040513d601f19601f82011682018060405250810190620001b0919062000282565b60ff16905080620001e45760405163fe3c012960e01b81526001600160a01b03841660048201526024015b60405180910390fd5b60128111156200021a576040516396434c7f60e01b81526001600160a01b038416600482015260248101829052604401620001db565b6001600160a01b039092166000908152600160205260409020601292909203600a0a918290555090565b6000806040838503121562000257578182fd5b82516200026481620002ac565b60208401519092506200027781620002ac565b809150509250929050565b60006020828403121562000294578081fd5b815160ff81168114620002a5578182fd5b9392505050565b6001600160a01b0381168114620002c257600080fd5b50565b60805160601c60a05160f81c60c05160601c613df46200032f600039600081816102ed01528181610afb01528181610ba401528181610ebd01528181610f660152611bb301526000818161022d01528181610bd00152611123015260006103ad0152613df46000f3fe608060405234801561001057600080fd5b506004361061016c5760003560e01c806365c9b257116100cd578063d02c70e811610081578063f0ac40c411610066578063f0ac40c414610388578063f6b9fdfb146103a8578063f851a440146103cf57600080fd5b8063d02c70e81461036a578063e6a69ab81461037d57600080fd5b806395d89b41116100b257806395d89b411461030f578063ba3941e71461034b578063cadbcc211461036257600080fd5b806365c9b257146102d55780638eb6f8f0146102e857600080fd5b8063313ce5671161012457806354fd4d501161010957806354fd4d501461027c57806357a4ad7c146102b857806362bbb6e0146102cd57600080fd5b8063313ce56714610228578063411557d11461026157600080fd5b806317e5a1a11161015557806317e5a1a1146101b0578063193d1da9146101c357806326782247146101e357600080fd5b806306fdde0314610171578063131ad74e1461018f575b600080fd5b6101796103ef565b60405161018691906138bf565b60405180910390f35b6101a261019d36600461368c565b61040b565b604051908152602001610186565b6101a26101be36600461340d565b61047e565b6101d66101d136600461340d565b610c24565b60405161018691906137f0565b6005546102039073ffffffffffffffffffffffffffffffffffffffff1681565b60405173ffffffffffffffffffffffffffffffffffffffff9091168152602001610186565b61024f7f000000000000000000000000000000000000000000000000000000000000000081565b60405160ff9091168152602001610186565b61020373ba12222222228d8ba445958a75a0704d566bf2c881565b6101796040518060400160405280600581526020017f312e302e3000000000000000000000000000000000000000000000000000000081525081565b6102cb6102c6366004613429565b6111cc565b005b6102cb6118c0565b6102cb6102e336600461340d565b611a54565b6102037f000000000000000000000000000000000000000000000000000000000000000081565b6101796040518060400160405280600981526020017f4379674e6562756c61000000000000000000000000000000000000000000000081525081565b60035460405162ffffff9091168152602001610186565b6101a2611bae565b610203610378366004613674565b611c5a565b6101a26301e1338081565b61039b61039636600461340d565b611c91565b60405161018691906138d2565b6102037f000000000000000000000000000000000000000000000000000000000000000081565b6004546102039073ffffffffffffffffffffffffffffffffffffffff1681565b604051806060016040528060218152602001613d9e6021913981565b60008061041785611f09565b9050600061042485611f09565b905060006104328383613bed565b90506000856104456301e1338084613bb0565b61044f9190613a4d565b90506000670de0b6b3a764000061046583611f62565b61046f9190613bed565b955050505050505b9392505050565b73ffffffffffffffffffffffffffffffffffffffff81166000908152600260209081526040808320815160e081018352815460ff81161515825261010090046affffffffffffffffffffff1693810193909352600181018054859493840191906104e790613c57565b80601f016020809104026020016040519081016040528092919081815260200182805461051390613c57565b80156105605780601f1061053557610100808354040283529160200191610560565b820191906000526020600020905b81548152906001019060200180831161054357829003601f168201915b5050509183525050600282015473ffffffffffffffffffffffffffffffffffffffff1660208083019190915260038301805460408051828502810185018252828152940193928301828280156105ec57602002820191906000526020600020905b815473ffffffffffffffffffffffffffffffffffffffff1681526001909101906020018083116105c1575b505050505081526020016004820180548060200260200160405190810160405280929190818152602001828054801561064457602002820191906000526020600020905b815481526020019060010190808311610630575b50505050508152602001600582018054806020026020016040519081016040528092919081815260200182805480156106b357602002820191906000526020600020905b815473ffffffffffffffffffffffffffffffffffffffff168152600190910190602001808311610688575b50505050508152505090508060000151610716576040517ffb642b4d00000000000000000000000000000000000000000000000000000000815273ffffffffffffffffffffffffffffffffffffffff841660048201526024015b60405180910390fd5b60008373ffffffffffffffffffffffffffffffffffffffff1663f89f27ed6040518163ffffffff1660e01b815260040160006040518083038186803b15801561075e57600080fd5b505afa158015610772573d6000803e3d6000fd5b505050506040513d6000823e601f3d9081017fffffffffffffffffffffffffffffffffffffffffffffffffffffffffffffffe01682016040526107b8919081019061357b565b905060006107cd670de0b6b3a7640000611fd1565b905060005b8360800151518110156109cc5760008460c00151828151811061081e577f4e487b7100000000000000000000000000000000000000000000000000000000600052603260045260246000fd5b602002602001015173ffffffffffffffffffffffffffffffffffffffff1663feaf968c6040518163ffffffff1660e01b815260040160a06040518083038186803b15801561086b57600080fd5b505afa15801561087f573d6000803e3d6000fd5b505050506040513d601f19601f820116820180604052508101906108a391906136b7565b50505091505060006108f98660c0015184815181106108eb577f4e487b7100000000000000000000000000000000000000000000000000000000600052603260045260246000fd5b602002602001015183612033565b90506000610950868581518110610939577f4e487b7100000000000000000000000000000000000000000000000000000000600052603260045260246000fd5b60200260200101518361207a90919063ffffffff16565b905060006109a7878681518110610990577f4e487b7100000000000000000000000000000000000000000000000000000000600052603260045260246000fd5b60200260200101518361219190919063ffffffff16565b90506109b386826121d9565b95505050505080806109c490613cab565b9150506107d2565b5060008573ffffffffffffffffffffffffffffffffffffffff1663c0ff1a156040518163ffffffff1660e01b815260040160206040518083038186803b158015610a1557600080fd5b505afa158015610a29573d6000803e3d6000fd5b505050506040513d601f19601f82011682018060405250810190610a4d91906135ae565b90506000610a5b83836121d9565b905060008773ffffffffffffffffffffffffffffffffffffffff166318160ddd6040518163ffffffff1660e01b815260040160206040518083038186803b158015610aa557600080fd5b505afa158015610ab9573d6000803e3d6000fd5b505050506040513d601f19601f82011682018060405250810190610add91906135ae565b90506000610af5670de0b6b3a764000084058361207a565b905060007f000000000000000000000000000000000000000000000000000000000000000073ffffffffffffffffffffffffffffffffffffffff1663feaf968c6040518163ffffffff1660e01b815260040160a06040518083038186803b158015610b5f57600080fd5b505afa158015610b73573d6000803e3d6000fd5b505050506040513d601f19601f82011682018060405250810190610b9791906136b7565b5050509150506000610bc97f000000000000000000000000000000000000000000000000000000000000000083612033565b9050610bf67f00000000000000000000000000000000000000000000000000000000000000006012613c04565b610c0190600a613ae7565b610c0b84836122e0565b610c159190613a4d565b9b9a5050505050505050505050565b73ffffffffffffffffffffffffffffffffffffffff81166000908152600260209081526040808320815160e081018352815460ff81161515825261010090046affffffffffffffffffffff1693810193909352600181018054606095949384019190610c8f90613c57565b80601f0160208091040260200160405190810160405280929190818152602001828054610cbb90613c57565b8015610d085780601f10610cdd57610100808354040283529160200191610d08565b820191906000526020600020905b815481529060010190602001808311610ceb57829003601f168201915b5050509183525050600282015473ffffffffffffffffffffffffffffffffffffffff166020808301919091526003830180546040805182850281018501825282815294019392830182828015610d9457602002820191906000526020600020905b815473ffffffffffffffffffffffffffffffffffffffff168152600190910190602001808311610d69575b5050505050815260200160048201805480602002602001604051908101604052809291908181526020018280548015610dec57602002820191906000526020600020905b815481526020019060010190808311610dd8575b5050505050815260200160058201805480602002602001604051908101604052809291908181526020018280548015610e5b57602002820191906000526020600020905b815473ffffffffffffffffffffffffffffffffffffffff168152600190910190602001808311610e30575b50505050508152505090508060000151610eb9576040517ffb642b4d00000000000000000000000000000000000000000000000000000000815273ffffffffffffffffffffffffffffffffffffffff8416600482015260240161070d565b60007f000000000000000000000000000000000000000000000000000000000000000073ffffffffffffffffffffffffffffffffffffffff1663feaf968c6040518163ffffffff1660e01b815260040160a06040518083038186803b158015610f2157600080fd5b505afa158015610f35573d6000803e3d6000fd5b505050506040513d601f19601f82011682018060405250810190610f5991906136b7565b5050509150506000610f8b7f000000000000000000000000000000000000000000000000000000000000000083612033565b9050600083608001515167ffffffffffffffff811115610fd4577f4e487b7100000000000000000000000000000000000000000000000000000000600052604160045260246000fd5b604051908082528060200260200182016040528015610ffd578160200160208202803683370190505b50905060005b8460800151518110156111c25760008560c00151828151811061104f577f4e487b7100000000000000000000000000000000000000000000000000000000600052603260045260246000fd5b602002602001015173ffffffffffffffffffffffffffffffffffffffff1663feaf968c6040518163ffffffff1660e01b815260040160a06040518083038186803b15801561109c57600080fd5b505afa1580156110b0573d6000803e3d6000fd5b505050506040513d601f19601f820116820180604052508101906110d491906136b7565b505050915050600061111c8760c0015184815181106108eb577f4e487b7100000000000000000000000000000000000000000000000000000000600052603260045260246000fd5b90506111497f00000000000000000000000000000000000000000000000000000000000000006012613c04565b61115490600a613ae7565b61115e82876122e0565b6111689190613a4d565b8484815181106111a1577f4e487b7100000000000000000000000000000000000000000000000000000000600052603260045260246000fd5b602002602001018181525050505080806111ba90613cab565b915050611003565b5095945050505050565b60005460ff16611208576040517f37ed32e800000000000000000000000000000000000000000000000000000000815260040160405180910390fd5b600080547fffffffffffffffffffffffffffffffffffffffffffffffffffffffffffffff001690556112386122f5565b73ffffffffffffffffffffffffffffffffffffffff83166000908152600260205260409020805460ff16156112b1576040517f48a979dc00000000000000000000000000000000000000000000000000000000815273ffffffffffffffffffffffffffffffffffffffff8516600482015260240161070d565b60008473ffffffffffffffffffffffffffffffffffffffff166338fff2d06040518163ffffffff1660e01b815260040160206040518083038186803b1580156112f957600080fd5b505afa15801561130d573d6000803e3d6000fd5b505050506040513d601f19601f8201168201806040525081019061133191906135ae565b6040517ff94d46680000000000000000000000000000000000000000000000000000000081526004810182905290915060009073ba12222222228d8ba445958a75a0704d566bf2c89063f94d46689060240160006040518083038186803b15801561139b57600080fd5b505afa1580156113af573d6000803e3d6000fd5b505050506040513d6000823e601f3d9081017fffffffffffffffffffffffffffffffffffffffffffffffffffffffffffffffe01682016040526113f591908101906134ac565b505090506000815167ffffffffffffffff81111561143c577f4e487b7100000000000000000000000000000000000000000000000000000000600052604160045260246000fd5b604051908082528060200260200182016040528015611465578160200160208202803683370190505b50905060005b825181101561162c576114bd8382815181106114b0577f4e487b7100000000000000000000000000000000000000000000000000000000600052603260045260246000fd5b6020026020010151612360565b506115148787838181106114fa577f4e487b7100000000000000000000000000000000000000000000000000000000600052603260045260246000fd5b905060200201602081019061150f919061340d565b612360565b5082818151811061154e577f4e487b7100000000000000000000000000000000000000000000000000000000600052603260045260246000fd5b602002602001015173ffffffffffffffffffffffffffffffffffffffff1663313ce5676040518163ffffffff1660e01b815260040160206040518083038186803b15801561159b57600080fd5b505afa1580156115af573d6000803e3d6000fd5b505050506040513d601f19601f820116820180604052508101906115d39190613706565b60ff1682828151811061160f577f4e487b7100000000000000000000000000000000000000000000000000000000600052603260045260246000fd5b60209081029190910101528061162481613cab565b91505061146b565b5060035462ffffff168460000160016101000a8154816affffffffffffffffffffff02191690836affffffffffffffffffffff1602179055508673ffffffffffffffffffffffffffffffffffffffff166306fdde036040518163ffffffff1660e01b815260040160006040518083038186803b1580156116ab57600080fd5b505afa1580156116bf573d6000803e3d6000fd5b505050506040513d6000823e601f3d9081017fffffffffffffffffffffffffffffffffffffffffffffffffffffffffffffffe016820160405261170591908101906135c6565b805161171b9160018701916020909101906131bf565b506002840180547fffffffffffffffffffffffff00000000000000000000000000000000000000001673ffffffffffffffffffffffffffffffffffffffff891617905581516117739060038601906020850190613243565b50805161178990600486019060208401906132bd565b506117986005850187876132f7565b50835460017fffffffffffffffffffffffffffffffffffffffffffffffffffffffffffffff00909116811785556003805480830182556000919091527fc2575a0e9e593c00f959f8c92f12db2869c3395a3b0502d05e2516446f71f85b0180547fffffffffffffffffffffffff00000000000000000000000000000000000000001673ffffffffffffffffffffffffffffffffffffffff8a1617905584546040517f540ddb7cc823b3d17a12d65e9225ce7287eb0140008b50e7720ea95ad28ea1e3926118849290916101009091046affffffffffffffffffffff16908b90879087908d908d90613803565b60405180910390a15050600080547fffffffffffffffffffffffffffffffffffffffffffffffffffffffffffffff001660011790555050505050565b60005460ff166118fc576040517f37ed32e800000000000000000000000000000000000000000000000000000000815260040160405180910390fd5b600080547fffffffffffffffffffffffffffffffffffffffffffffffffffffffffffffff0016905561192c6122f5565b60055473ffffffffffffffffffffffffffffffffffffffff16611997576005546040517fb964881700000000000000000000000000000000000000000000000000000000815273ffffffffffffffffffffffffffffffffffffffff909116600482015260240161070d565b600480546005805473ffffffffffffffffffffffffffffffffffffffff8082167fffffffffffffffffffffffff0000000000000000000000000000000000000000808616821790965594909116909155604080519190921680825260208201939093527f5d79527e1742e3cb9a668b777100775a1648a5a8adea9c578d164dd2d0908aac91015b60405180910390a150600080547fffffffffffffffffffffffffffffffffffffffffffffffffffffffffffffff00166001179055565b60005460ff16611a90576040517f37ed32e800000000000000000000000000000000000000000000000000000000815260040160405180910390fd5b600080547fffffffffffffffffffffffffffffffffffffffffffffffffffffffffffffff00169055611ac06122f5565b60055473ffffffffffffffffffffffffffffffffffffffff82811691161415611b2d576040517f3181df5200000000000000000000000000000000000000000000000000000000815273ffffffffffffffffffffffffffffffffffffffff8216600482015260240161070d565b600580547fffffffffffffffffffffffff00000000000000000000000000000000000000001673ffffffffffffffffffffffffffffffffffffffff8381169182179092556004546040805191909316815260208101919091527f0ddc205eecbcb9fd6100d787269a63285115c1e35297b5cd128aa171376b76229101611a1e565b6000807f000000000000000000000000000000000000000000000000000000000000000073ffffffffffffffffffffffffffffffffffffffff1663feaf968c6040518163ffffffff1660e01b815260040160a06040518083038186803b158015611c1757600080fd5b505afa158015611c2b573d6000803e3d6000fd5b505050506040513d601f19601f82011682018060405250810190611c4f91906136b7565b509195945050505050565b60038181548110611c6a57600080fd5b60009182526020909120015473ffffffffffffffffffffffffffffffffffffffff16905081565b6040805160e080820183526000808352602080840182905260608486018190528085018390526080850181905260a0850181905260c085015273ffffffffffffffffffffffffffffffffffffffff86168252600281529084902084519283018552805460ff81161515845261010090046affffffffffffffffffffff1691830191909152600181018054939492939192840191611d2d90613c57565b80601f0160208091040260200160405190810160405280929190818152602001828054611d5990613c57565b8015611da65780601f10611d7b57610100808354040283529160200191611da6565b820191906000526020600020905b815481529060010190602001808311611d8957829003601f168201915b5050509183525050600282015473ffffffffffffffffffffffffffffffffffffffff166020808301919091526003830180546040805182850281018501825282815294019392830182828015611e3257602002820191906000526020600020905b815473ffffffffffffffffffffffffffffffffffffffff168152600190910190602001808311611e07575b5050505050815260200160048201805480602002602001604051908101604052809291908181526020018280548015611e8a57602002820191906000526020600020905b815481526020019060010190808311611e76575b5050505050815260200160058201805480602002602001604051908101604052809291908181526020018280548015611ef957602002820191906000526020600020905b815473ffffffffffffffffffffffffffffffffffffffff168152600190910190602001808311611ece575b5050505050815250509050919050565b60006714057b7ef767814f670de0b6b3a7640000611f26846124c6565b0281611f5b577f4e487b7100000000000000000000000000000000000000000000000000000000600052601260045260246000fd5b0492915050565b6000680736ea4425c11ac6318210611fa9576040517f315da0680000000000000000000000000000000000000000000000000000000081526004810183905260240161070d565b6714057b7ef767814f8202610477670de0b6b3a76400006706f05b59d3b2000083010461258f565b60007ffffffffffffffff6c6d11716de2a2f8c500cdd19dbc6030cd280cbb9b6b8f070821280159061201c57507809392ee8e921d5d073aff322e62439fcf32d7f344649470f908213155b61202557600080fd5b50670de0b6b3a76400000290565b73ffffffffffffffffffffffffffffffffffffffff821660009081526001602052604081205480600114156120685782612072565b6120728184613bb0565b949350505050565b60007f800000000000000000000000000000000000000000000000000000000000000083136120a857600080fd5b7f800000000000000000000000000000000000000000000000000000000000000082136120d457600080fd5b600080600085126120e557846120ea565b846000035b9150600084126120fa57836120ff565b836000035b9050600061211683670de0b6b3a7640000846125ee565b90507f7fffffffffffffffffffffffffffffffffffffffffffffffffffffffffffffff81111561214557600080fd5b7fffffffffffffffffffffffffffffffffffffffffffffffffffffffffffffffff80871390861380821860011461217c5782612185565b61218583613ce4565b98975050505050505050565b6000826121b65781156121a55760006121af565b670de0b6b3a76400005b90506121d3565b6121d06121cb6121c58561271a565b846121d9565b612800565b90505b92915050565b60007f8000000000000000000000000000000000000000000000000000000000000000831361220757600080fd5b7f8000000000000000000000000000000000000000000000000000000000000000821361223357600080fd5b600080600085126122445784612249565b846000035b915060008412612259578361225e565b836000035b9050600061226c83836128ab565b90507f7fffffffffffffffffffffffffffffffffffffffffffffffffffffffffffffff81111561229b57600080fd5b7fffffffffffffffffffffffffffffffffffffffffffffffffffffffffffffffff8087139086138082186001146122d25782612185565b505060000395945050505050565b60006121d083670de0b6b3a7640000846125ee565b60045473ffffffffffffffffffffffffffffffffffffffff163373ffffffffffffffffffffffffffffffffffffffff161461235e576040517f97fcc9e200000000000000000000000000000000000000000000000000000000815233600482015260240161070d565b565b6000808273ffffffffffffffffffffffffffffffffffffffff1663313ce5676040518163ffffffff1660e01b815260040160206040518083038186803b1580156123a957600080fd5b505afa1580156123bd573d6000803e3d6000fd5b505050506040513d601f19601f820116820180604052508101906123e19190613706565b60ff16905080612435576040517ffe3c012900000000000000000000000000000000000000000000000000000000815273ffffffffffffffffffffffffffffffffffffffff8416600482015260240161070d565b601281111561248f576040517f96434c7f00000000000000000000000000000000000000000000000000000000815273ffffffffffffffffffffffffffffffffffffffff841660048201526024810182905260440161070d565b73ffffffffffffffffffffffffffffffffffffffff9092166000908152600160205260409020601292909203600a0a918290555090565b6000670de0b6b3a764000082101561250d576040517fd88504dc0000000000000000000000000000000000000000000000000000000081526004810183905260240161070d565b6000612522670de0b6b3a764000084046129be565b670de0b6b3a7640000808202935090915083821c90811415612545575050919050565b6706f05b59d3b200005b801561258757670de0b6b3a7640000828002049150671bc16d674ec80000821061257f579283019260019190911c905b60011c61254f565b505050919050565b6000680a688906bd8b00000082106125d6576040517f4a4f26f10000000000000000000000000000000000000000000000000000000081526004810183905260240161070d565b670de0b6b3a7640000604083901b0461047781612aaf565b600080807fffffffffffffffffffffffffffffffffffffffffffffffffffffffffffffffff858709858702925082811083820303915050806000141561266e57838281612664577f4e487b7100000000000000000000000000000000000000000000000000000000600052601260045260246000fd5b0492505050610477565b8381106126b1576040517f773cc18c000000000000000000000000000000000000000000000000000000008152600481018290526024810185905260440161070d565b60008486880960026001871981018816978890046003810283188082028403028082028403028082028403028082028403028082028403029081029092039091026000889003889004909101858311909403939093029303949094049190911702949350505050565b600080821361272857600080fd5b6000670de0b6b3a7640000831261274157506001612779565b7fffffffffffffffffffffffffffffffffffffffffffffffffffffffffffffffff9050826ec097ce7bc90715b34b9f10000000000492505b600061278e670de0b6b3a764000085056129be565b670de0b6b3a7640000808202945090915084821d908114156127b257505002919050565b6706f05b59d3b200005b60008113156127f757670de0b6b3a7640000828002059150671bc16d674ec8000082126127ef579384019360019190911d905b60011d6127bc565b50505002919050565b600080821215612891577ffffffffffffffffffffffffffffffffffffffffffffffffcc22e87f6eb468eeb82121561283a57506000919050565b61284682600003612800565b6ec097ce7bc90715b34b9f10000000008161288a577f4e487b7100000000000000000000000000000000000000000000000000000000600052601260045260246000fd5b0592915050565b680a688906bd8b00000082126125d657600080fd5b919050565b600080807fffffffffffffffffffffffffffffffffffffffffffffffffffffffffffffffff848609848602925082811083820303915050670de0b6b3a76400008110612926576040517fd31b34020000000000000000000000000000000000000000000000000000000081526004810182905260240161070d565b600080670de0b6b3a76400008688099150506706f05b59d3b1ffff8111826129605780670de0b6b3a76400008504019450505050506121d3565b6204000082850304939091119091037d40000000000000000000000000000000000000000000000000000000000002919091177faccb18165bd6fe31ae1cf318dc5b51eee0e1ba569b88cd74c1773b91fac106690201905092915050565b600070010000000000000000000000000000000082106129eb57608091821c916129e89082613a35565b90505b680100000000000000008210612a0e57604091821c91612a0b9082613a35565b90505b6401000000008210612a2d57602091821c91612a2a9082613a35565b90505b620100008210612a4a57601091821c91612a479082613a35565b90505b6101008210612a6657600891821c91612a639082613a35565b90505b60108210612a8157600491821c91612a7e9082613a35565b90505b60048210612a9c57600291821c91612a999082613a35565b90505b600282106128a6576121d3600182613a35565b77800000000000000000000000000000000000000000000000678000000000000000821615612ae75768016a09e667f3bcc9090260401c5b674000000000000000821615612b06576801306fe0a31b7152df0260401c5b672000000000000000821615612b25576801172b83c7d517adce0260401c5b671000000000000000821615612b445768010b5586cf9890f62a0260401c5b670800000000000000821615612b63576801059b0d31585743ae0260401c5b670400000000000000821615612b8257680102c9a3e778060ee70260401c5b670200000000000000821615612ba15768010163da9fb33356d80260401c5b670100000000000000821615612bc057680100b1afa5abcbed610260401c5b6680000000000000821615612bde5768010058c86da1c09ea20260401c5b6640000000000000821615612bfc576801002c605e2e8cec500260401c5b6620000000000000821615612c1a57680100162f3904051fa10260401c5b6610000000000000821615612c38576801000b175effdc76ba0260401c5b6608000000000000821615612c5657680100058ba01fb9f96d0260401c5b6604000000000000821615612c745768010002c5cc37da94920260401c5b6602000000000000821615612c92576801000162e525ee05470260401c5b6601000000000000821615612cb05768010000b17255775c040260401c5b65800000000000821615612ccd576801000058b91b5bc9ae0260401c5b65400000000000821615612cea57680100002c5c89d5ec6d0260401c5b65200000000000821615612d075768010000162e43f4f8310260401c5b65100000000000821615612d2457680100000b1721bcfc9a0260401c5b65080000000000821615612d415768010000058b90cf1e6e0260401c5b65040000000000821615612d5e576801000002c5c863b73f0260401c5b65020000000000821615612d7b57680100000162e430e5a20260401c5b65010000000000821615612d98576801000000b1721835510260401c5b648000000000821615612db457680100000058b90c0b490260401c5b644000000000821615612dd05768010000002c5c8601cc0260401c5b642000000000821615612dec576801000000162e42fff00260401c5b641000000000821615612e085768010000000b17217fbb0260401c5b640800000000821615612e24576801000000058b90bfce0260401c5b640400000000821615612e4057680100000002c5c85fe30260401c5b640200000000821615612e5c5768010000000162e42ff10260401c5b640100000000821615612e7857680100000000b17217f80260401c5b6380000000821615612e935768010000000058b90bfc0260401c5b6340000000821615612eae576801000000002c5c85fe0260401c5b6320000000821615612ec957680100000000162e42ff0260401c5b6310000000821615612ee4576801000000000b17217f0260401c5b6308000000821615612eff57680100000000058b90c00260401c5b6304000000821615612f1a5768010000000002c5c8600260401c5b6302000000821615612f35576801000000000162e4300260401c5b6301000000821615612f505768010000000000b172180260401c5b62800000821615612f6a576801000000000058b90c0260401c5b62400000821615612f8457680100000000002c5c860260401c5b62200000821615612f9e5768010000000000162e430260401c5b62100000821615612fb857680100000000000b17210260401c5b62080000821615612fd25768010000000000058b910260401c5b62040000821615612fec576801000000000002c5c80260401c5b6202000082161561300657680100000000000162e40260401c5b62010000821615613020576801000000000000b1720260401c5b61800082161561303957680100000000000058b90260401c5b6140008216156130525768010000000000002c5d0260401c5b61200082161561306b576801000000000000162e0260401c5b6110008216156130845768010000000000000b170260401c5b61080082161561309d576801000000000000058c0260401c5b6104008216156130b657680100000000000002c60260401c5b6102008216156130cf57680100000000000001630260401c5b6101008216156130e857680100000000000000b10260401c5b608082161561310057680100000000000000590260401c5b6040821615613118576801000000000000002c0260401c5b602082161561313057680100000000000000160260401c5b6010821615613148576801000000000000000b0260401c5b600882161561316057680100000000000000060260401c5b600482161561317857680100000000000000030260401c5b600282161561319057680100000000000000010260401c5b60018216156131a857680100000000000000010260401c5b670de0b6b3a76400000260409190911c60bf031c90565b8280546131cb90613c57565b90600052602060002090601f0160209004810192826131ed5760008555613233565b82601f1061320657805160ff1916838001178555613233565b82800160010185558215613233579182015b82811115613233578251825591602001919060010190613218565b5061323f92915061336f565b5090565b828054828255906000526020600020908101928215613233579160200282015b8281111561323357825182547fffffffffffffffffffffffff00000000000000000000000000000000000000001673ffffffffffffffffffffffffffffffffffffffff909116178255602090920191600190910190613263565b8280548282559060005260206000209081019282156132335791602002820182811115613233578251825591602001919060010190613218565b828054828255906000526020600020908101928215613233579160200282015b828111156132335781547fffffffffffffffffffffffff00000000000000000000000000000000000000001673ffffffffffffffffffffffffffffffffffffffff843516178255602090920191600190910190613317565b5b8082111561323f5760008155600101613370565b600082601f830112613394578081fd5b815160206133a96133a483613a11565b6139c2565b80838252828201915082860187848660051b89010111156133c8578586fd5b855b858110156133e6578151845292840192908401906001016133ca565b5090979650505050505050565b805169ffffffffffffffffffff811681146128a657600080fd5b60006020828403121561341e578081fd5b813561047781613d78565b60008060006040848603121561343d578182fd5b833561344881613d78565b9250602084013567ffffffffffffffff80821115613464578384fd5b818601915086601f830112613477578384fd5b813581811115613485578485fd5b8760208260051b8501011115613499578485fd5b6020830194508093505050509250925092565b6000806000606084860312156134c0578283fd5b835167ffffffffffffffff808211156134d7578485fd5b818601915086601f8301126134ea578485fd5b815160206134fa6133a483613a11565b8083825282820191508286018b848660051b890101111561351957898afd5b8996505b8487101561354457805161353081613d78565b83526001969096019591830191830161351d565b509189015191975090935050508082111561355d578384fd5b5061356a86828701613384565b925050604084015190509250925092565b60006020828403121561358c578081fd5b815167ffffffffffffffff8111156135a2578182fd5b61207284828501613384565b6000602082840312156135bf578081fd5b5051919050565b6000602082840312156135d7578081fd5b815167ffffffffffffffff808211156135ee578283fd5b818401915084601f830112613601578283fd5b81518181111561361357613613613d49565b61364460207fffffffffffffffffffffffffffffffffffffffffffffffffffffffffffffffe0601f840116016139c2565b915080825285602082850101111561365a578384fd5b61366b816020840160208601613c27565b50949350505050565b600060208284031215613685578081fd5b5035919050565b6000806000606084860312156136a0578283fd5b505081359360208301359350604090920135919050565b600080600080600060a086880312156136ce578283fd5b6136d7866133f3565b94506020860151935060408601519250606086015191506136fa608087016133f3565b90509295509295909350565b600060208284031215613717578081fd5b815160ff81168114610477578182fd5b6000815180845260208085019450808401835b8381101561376c57815173ffffffffffffffffffffffffffffffffffffffff168752958201959082019060010161373a565b509495945050505050565b6000815180845260208085019450808401835b8381101561376c5781518752958201959082019060010161378a565b600081518084526137be816020860160208601613c27565b601f017fffffffffffffffffffffffffffffffffffffffffffffffffffffffffffffffe0169290920160200192915050565b6020815260006121d06020830184613777565b8715158152600060206affffffffffffffffffffff89168184015273ffffffffffffffffffffffffffffffffffffffff8816604084015260c0606084015261384e60c0840188613727565b83810360808501526138608188613777565b84810360a08601528581528691508201835b868110156138af57823561388581613d78565b73ffffffffffffffffffffffffffffffffffffffff16825291830191602090910190600101613872565b509b9a5050505050505050505050565b6020815260006121d060208301846137a6565b60208152815115156020820152600060208301516138ff60408401826affffffffffffffffffffff169052565b50604083015160e0606084015261391a6101008401826137a6565b90506060840151613943608085018273ffffffffffffffffffffffffffffffffffffffff169052565b5060808401517fffffffffffffffffffffffffffffffffffffffffffffffffffffffffffffffe0808584030160a086015261397e8383613727565b925060a08601519150808584030160c086015261399b8383613777565b925060c08601519150808584030160e0860152506139b98282613727565b95945050505050565b604051601f82017fffffffffffffffffffffffffffffffffffffffffffffffffffffffffffffffe016810167ffffffffffffffff81118282101715613a0957613a09613d49565b604052919050565b600067ffffffffffffffff821115613a2b57613a2b613d49565b5060051b60200190565b60008219821115613a4857613a48613d1a565b500190565b600082613a81577f4e487b710000000000000000000000000000000000000000000000000000000081526012600452602481fd5b500490565b600181815b80851115613adf57817fffffffffffffffffffffffffffffffffffffffffffffffffffffffffffffffff04821115613ac557613ac5613d1a565b80851615613ad257918102915b93841c9390800290613a8b565b509250929050565b60006121d060ff841683600082613b00575060016121d3565b81613b0d575060006121d3565b8160018114613b235760028114613b2d57613b49565b60019150506121d3565b60ff841115613b3e57613b3e613d1a565b50506001821b6121d3565b5060208310610133831016604e8410600b8410161715613b6c575081810a6121d3565b613b768383613a86565b807fffffffffffffffffffffffffffffffffffffffffffffffffffffffffffffffff04821115613ba857613ba8613d1a565b029392505050565b6000817fffffffffffffffffffffffffffffffffffffffffffffffffffffffffffffffff0483118215151615613be857613be8613d1a565b500290565b600082821015613bff57613bff613d1a565b500390565b600060ff821660ff841680821015613c1e57613c1e613d1a565b90039392505050565b60005b83811015613c42578181015183820152602001613c2a565b83811115613c51576000848401525b50505050565b600181811c90821680613c6b57607f821691505b60208210811415613ca5577f4e487b7100000000000000000000000000000000000000000000000000000000600052602260045260246000fd5b50919050565b60007fffffffffffffffffffffffffffffffffffffffffffffffffffffffffffffffff821415613cdd57613cdd613d1a565b5060010190565b60007f8000000000000000000000000000000000000000000000000000000000000000821415613d1657613d16613d1a565b0390565b7f4e487b7100000000000000000000000000000000000000000000000000000000600052601160045260246000fd5b7f4e487b7100000000000000000000000000000000000000000000000000000000600052604160045260246000fd5b73ffffffffffffffffffffffffffffffffffffffff81168114613d9a57600080fd5b5056fe4379676e75732d4e6562756c613a205765696768746564204c50204f7261636c65a264697066735822122006bc88e5847a4162dff938a6850002907d06eeaf7c2710274630cc861240163464736f6c63430008040033",
  "linkReferences": {},
  "deployedLinkReferences": {}
}